{
  "_format": "hh-sol-artifact-1",
  "contractName": "ColorNFT",
  "sourceName": "contracts/ColorNFT.sol",
  "abi": [
    {
      "inputs": [],
      "stateMutability": "nonpayable",
      "type": "constructor"
    },
    {
      "anonymous": false,
      "inputs": [
        {
          "indexed": true,
          "internalType": "address",
          "name": "owner",
          "type": "address"
        },
        {
          "indexed": true,
          "internalType": "address",
          "name": "approved",
          "type": "address"
        },
        {
          "indexed": true,
          "internalType": "uint256",
          "name": "tokenId",
          "type": "uint256"
        }
      ],
      "name": "Approval",
      "type": "event"
    },
    {
      "anonymous": false,
      "inputs": [
        {
          "indexed": true,
          "internalType": "address",
          "name": "owner",
          "type": "address"
        },
        {
          "indexed": true,
          "internalType": "address",
          "name": "operator",
          "type": "address"
        },
        {
          "indexed": false,
          "internalType": "bool",
          "name": "approved",
          "type": "bool"
        }
      ],
      "name": "ApprovalForAll",
      "type": "event"
    },
    {
      "anonymous": false,
      "inputs": [
        {
          "indexed": false,
          "internalType": "address",
          "name": "sender",
          "type": "address"
        },
        {
          "indexed": false,
          "internalType": "uint256",
          "name": "tokenId",
          "type": "uint256"
        }
      ],
      "name": "ColorNFTMinted",
      "type": "event"
    },
    {
      "anonymous": false,
      "inputs": [
        {
          "indexed": true,
          "internalType": "address",
          "name": "from",
          "type": "address"
        },
        {
          "indexed": true,
          "internalType": "address",
          "name": "to",
          "type": "address"
        },
        {
          "indexed": true,
          "internalType": "uint256",
          "name": "tokenId",
          "type": "uint256"
        }
      ],
      "name": "Transfer",
      "type": "event"
    },
    {
      "inputs": [
        {
          "internalType": "address",
          "name": "to",
          "type": "address"
        },
        {
          "internalType": "uint256",
          "name": "tokenId",
          "type": "uint256"
        }
      ],
      "name": "approve",
      "outputs": [],
      "stateMutability": "nonpayable",
      "type": "function"
    },
    {
      "inputs": [
        {
          "internalType": "address",
          "name": "owner",
          "type": "address"
        }
      ],
      "name": "balanceOf",
      "outputs": [
        {
          "internalType": "uint256",
          "name": "",
          "type": "uint256"
        }
      ],
      "stateMutability": "view",
      "type": "function"
    },
    {
      "inputs": [],
      "name": "createNFT",
      "outputs": [],
      "stateMutability": "nonpayable",
      "type": "function"
    },
    {
      "inputs": [
        {
          "internalType": "uint256",
          "name": "tokenId",
          "type": "uint256"
        }
      ],
      "name": "getApproved",
      "outputs": [
        {
          "internalType": "address",
          "name": "",
          "type": "address"
        }
      ],
      "stateMutability": "view",
      "type": "function"
    },
    {
      "inputs": [
        {
          "internalType": "address",
          "name": "owner",
          "type": "address"
        },
        {
          "internalType": "address",
          "name": "operator",
          "type": "address"
        }
      ],
      "name": "isApprovedForAll",
      "outputs": [
        {
          "internalType": "bool",
          "name": "",
          "type": "bool"
        }
      ],
      "stateMutability": "view",
      "type": "function"
    },
    {
      "inputs": [],
      "name": "name",
      "outputs": [
        {
          "internalType": "string",
          "name": "",
          "type": "string"
        }
      ],
      "stateMutability": "view",
      "type": "function"
    },
    {
      "inputs": [
        {
          "internalType": "uint256",
          "name": "tokenId",
          "type": "uint256"
        }
      ],
      "name": "ownerOf",
      "outputs": [
        {
          "internalType": "address",
          "name": "",
          "type": "address"
        }
      ],
      "stateMutability": "view",
      "type": "function"
    },
    {
      "inputs": [
        {
          "internalType": "uint256",
          "name": "tokenId",
          "type": "uint256"
        },
        {
          "internalType": "string",
          "name": "salt",
          "type": "string"
        }
      ],
      "name": "pickRandomDigit",
      "outputs": [
        {
          "internalType": "string",
          "name": "",
          "type": "string"
        }
      ],
      "stateMutability": "view",
      "type": "function"
    },
    {
      "inputs": [
        {
          "internalType": "address",
          "name": "from",
          "type": "address"
        },
        {
          "internalType": "address",
          "name": "to",
          "type": "address"
        },
        {
          "internalType": "uint256",
          "name": "tokenId",
          "type": "uint256"
        }
      ],
      "name": "safeTransferFrom",
      "outputs": [],
      "stateMutability": "nonpayable",
      "type": "function"
    },
    {
      "inputs": [
        {
          "internalType": "address",
          "name": "from",
          "type": "address"
        },
        {
          "internalType": "address",
          "name": "to",
          "type": "address"
        },
        {
          "internalType": "uint256",
          "name": "tokenId",
          "type": "uint256"
        },
        {
          "internalType": "bytes",
          "name": "_data",
          "type": "bytes"
        }
      ],
      "name": "safeTransferFrom",
      "outputs": [],
      "stateMutability": "nonpayable",
      "type": "function"
    },
    {
      "inputs": [
        {
          "internalType": "address",
          "name": "operator",
          "type": "address"
        },
        {
          "internalType": "bool",
          "name": "approved",
          "type": "bool"
        }
      ],
      "name": "setApprovalForAll",
      "outputs": [],
      "stateMutability": "nonpayable",
      "type": "function"
    },
    {
      "inputs": [
        {
          "internalType": "bytes4",
          "name": "interfaceId",
          "type": "bytes4"
        }
      ],
      "name": "supportsInterface",
      "outputs": [
        {
          "internalType": "bool",
          "name": "",
          "type": "bool"
        }
      ],
      "stateMutability": "view",
      "type": "function"
    },
    {
      "inputs": [],
      "name": "symbol",
      "outputs": [
        {
          "internalType": "string",
          "name": "",
          "type": "string"
        }
      ],
      "stateMutability": "view",
      "type": "function"
    },
    {
      "inputs": [
        {
          "internalType": "uint256",
          "name": "tokenId",
          "type": "uint256"
        }
      ],
      "name": "tokenURI",
      "outputs": [
        {
          "internalType": "string",
          "name": "",
          "type": "string"
        }
      ],
      "stateMutability": "view",
      "type": "function"
    },
    {
      "inputs": [
        {
          "internalType": "address",
          "name": "from",
          "type": "address"
        },
        {
          "internalType": "address",
          "name": "to",
          "type": "address"
        },
        {
          "internalType": "uint256",
          "name": "tokenId",
          "type": "uint256"
        }
      ],
      "name": "transferFrom",
      "outputs": [],
      "stateMutability": "nonpayable",
      "type": "function"
    }
  ],
  "bytecode": "0x60806040526040518061020001604052806040518060400160405280600181526020017f300000000000000000000000000000000000000000000000000000000000000081525081526020016040518060400160405280600181526020017f310000000000000000000000000000000000000000000000000000000000000081525081526020016040518060400160405280600181526020017f320000000000000000000000000000000000000000000000000000000000000081525081526020016040518060400160405280600181526020017f330000000000000000000000000000000000000000000000000000000000000081525081526020016040518060400160405280600181526020017f340000000000000000000000000000000000000000000000000000000000000081525081526020016040518060400160405280600181526020017f350000000000000000000000000000000000000000000000000000000000000081525081526020016040518060400160405280600181526020017f360000000000000000000000000000000000000000000000000000000000000081525081526020016040518060400160405280600181526020017f370000000000000000000000000000000000000000000000000000000000000081525081526020016040518060400160405280600181526020017f380000000000000000000000000000000000000000000000000000000000000081525081526020016040518060400160405280600181526020017f390000000000000000000000000000000000000000000000000000000000000081525081526020016040518060400160405280600181526020017f410000000000000000000000000000000000000000000000000000000000000081525081526020016040518060400160405280600181526020017f420000000000000000000000000000000000000000000000000000000000000081525081526020016040518060400160405280600181526020017f430000000000000000000000000000000000000000000000000000000000000081525081526020016040518060400160405280600181526020017f440000000000000000000000000000000000000000000000000000000000000081525081526020016040518060400160405280600181526020017f450000000000000000000000000000000000000000000000000000000000000081525081526020016040518060400160405280600181526020017f46000000000000000000000000000000000000000000000000000000000000008152508152506008906010620003d0929190620005ce565b506040518060c001604052806089815260200162003ff760899139600990805190602001906200040292919062000635565b503480156200041057600080fd5b506040518060400160405280600881526020017f436f6c6f724e46540000000000000000000000000000000000000000000000008152506040518060400160405280600581526020017f434f4c4f5200000000000000000000000000000000000000000000000000000081525081600090805190602001906200049592919062000635565b508060019080519060200190620004ae92919062000635565b505050620004fc6040518060400160405280601e81526020017f54686973206973206d79204e465420636f6e74726163742e2057686f612100008152506200050260201b62000f831760201c565b62000880565b620005a28160405160240162000519919062000794565b6040516020818303038152906040527f41304fac000000000000000000000000000000000000000000000000000000007bffffffffffffffffffffffffffffffffffffffffffffffffffffffff19166020820180517bffffffffffffffffffffffffffffffffffffffffffffffffffffffff8381831617835250505050620005a560201b60201c565b50565b60008151905060006a636f6e736f6c652e6c6f679050602083016000808483855afa5050505050565b82805482825590600052602060002090810192821562000622579160200282015b82811115620006215782518290805190602001906200061092919062000635565b5091602001919060010190620005ef565b5b509050620006319190620006c6565b5090565b82805462000643906200080a565b90600052602060002090601f016020900481019282620006675760008555620006b3565b82601f106200068257805160ff1916838001178555620006b3565b82800160010185558215620006b3579182015b82811115620006b257825182559160200191906001019062000695565b5b509050620006c29190620006ee565b5090565b5b80821115620006ea5760008181620006e091906200070d565b50600101620006c7565b5090565b5b8082111562000709576000816000905550600101620006ef565b5090565b5080546200071b906200080a565b6000825580601f106200072f575062000750565b601f0160209004906000526020600020908101906200074f9190620006ee565b5b50565b60006200076082620007b8565b6200076c8185620007c3565b93506200077e818560208601620007d4565b62000789816200086f565b840191505092915050565b60006020820190508181036000830152620007b0818462000753565b905092915050565b600081519050919050565b600082825260208201905092915050565b60005b83811015620007f4578082015181840152602081019050620007d7565b8381111562000804576000848401525b50505050565b600060028204905060018216806200082357607f821691505b602082108114156200083a576200083962000840565b5b50919050565b7f4e487b7100000000000000000000000000000000000000000000000000000000600052602260045260246000fd5b6000601f19601f8301169050919050565b61376780620008906000396000f3fe608060405234801561001057600080fd5b50600436106100f55760003560e01c806370a0823111610097578063a22cb46511610066578063a22cb46514610284578063b88d4fde146102a0578063c87b56dd146102bc578063e985e9c5146102ec576100f5565b806370a08231146101fc5780638a97ec2a1461022c5780638d4ba30d1461023657806395d89b4114610266576100f5565b8063095ea7b3116100d3578063095ea7b31461017857806323b872dd1461019457806342842e0e146101b05780636352211e146101cc576100f5565b806301ffc9a7146100fa57806306fdde031461012a578063081812fc14610148575b600080fd5b610114600480360381019061010f91906123eb565b61031c565b6040516101219190612fad565b60405180910390f35b6101326103fe565b60405161013f9190612fc8565b60405180910390f35b610162600480360381019061015d919061243d565b610490565b60405161016f9190612f1d565b60405180910390f35b610192600480360381019061018d91906123af565b610515565b005b6101ae60048036038101906101a991906122a9565b61062d565b005b6101ca60048036038101906101c591906122a9565b61068d565b005b6101e660048036038101906101e1919061243d565b6106ad565b6040516101f39190612f1d565b60405180910390f35b61021660048036038101906102119190612244565b61075f565b6040516102239190613228565b60405180910390f35b610234610817565b005b610250600480360381019061024b9190612466565b610b72565b60405161025d9190612fc8565b60405180910390f35b61026e610c93565b60405161027b9190612fc8565b60405180910390f35b61029e60048036038101906102999190612373565b610d25565b005b6102ba60048036038101906102b591906122f8565b610d3b565b005b6102d660048036038101906102d1919061243d565b610d9d565b6040516102e39190612fc8565b60405180910390f35b6103066004803603810190610301919061226d565b610eef565b6040516103139190612fad565b60405180910390f35b60007f80ac58cd000000000000000000000000000000000000000000000000000000007bffffffffffffffffffffffffffffffffffffffffffffffffffffffff1916827bffffffffffffffffffffffffffffffffffffffffffffffffffffffff191614806103e757507f5b5e139f000000000000000000000000000000000000000000000000000000007bffffffffffffffffffffffffffffffffffffffffffffffffffffffff1916827bffffffffffffffffffffffffffffffffffffffffffffffffffffffff1916145b806103f757506103f68261101c565b5b9050919050565b60606000805461040d906134f7565b80601f0160208091040260200160405190810160405280929190818152602001828054610439906134f7565b80156104865780601f1061045b57610100808354040283529160200191610486565b820191906000526020600020905b81548152906001019060200180831161046957829003601f168201915b5050505050905090565b600061049b82611086565b6104da576040517f08c379a00000000000000000000000000000000000000000000000000000000081526004016104d190613188565b60405180910390fd5b6004600083815260200190815260200160002060009054906101000a900473ffffffffffffffffffffffffffffffffffffffff169050919050565b6000610520826106ad565b90508073ffffffffffffffffffffffffffffffffffffffff168373ffffffffffffffffffffffffffffffffffffffff161415610591576040517f08c379a0000000000000000000000000000000000000000000000000000000008152600401610588906131e8565b60405180910390fd5b8073ffffffffffffffffffffffffffffffffffffffff166105b06110f2565b73ffffffffffffffffffffffffffffffffffffffff1614806105df57506105de816105d96110f2565b610eef565b5b61061e576040517f08c379a0000000000000000000000000000000000000000000000000000000008152600401610615906130c8565b60405180910390fd5b61062883836110fa565b505050565b61063e6106386110f2565b826111b3565b61067d576040517f08c379a000000000000000000000000000000000000000000000000000000000815260040161067490613208565b60405180910390fd5b610688838383611291565b505050565b6106a883838360405180602001604052806000815250610d3b565b505050565b6000806002600084815260200190815260200160002060009054906101000a900473ffffffffffffffffffffffffffffffffffffffff169050600073ffffffffffffffffffffffffffffffffffffffff168173ffffffffffffffffffffffffffffffffffffffff161415610756576040517f08c379a000000000000000000000000000000000000000000000000000000000815260040161074d90613108565b60405180910390fd5b80915050919050565b60008073ffffffffffffffffffffffffffffffffffffffff168273ffffffffffffffffffffffffffffffffffffffff1614156107d0576040517f08c379a00000000000000000000000000000000000000000000000000000000081526004016107c7906130e8565b60405180910390fd5b600360008373ffffffffffffffffffffffffffffffffffffffff1673ffffffffffffffffffffffffffffffffffffffff168152602001908152602001600020549050919050565b600061082360076114ed565b90506000610866826040518060400160405280600b81526020017f66697273745f6469676974000000000000000000000000000000000000000000815250610b72565b905060006108a9836040518060400160405280600c81526020017f7365636f6e645f64696769740000000000000000000000000000000000000000815250610b72565b905060006108ec846040518060400160405280600b81526020017f74686972645f6469676974000000000000000000000000000000000000000000815250610b72565b9050600061092f856040518060400160405280600c81526020017f666f757274685f64696769740000000000000000000000000000000000000000815250610b72565b90506000610972866040518060400160405280600b81526020017f66696674685f6469676974000000000000000000000000000000000000000000815250610b72565b905060006109b5876040518060400160405280600b81526020017f73697874685f6469676974000000000000000000000000000000000000000000815250610b72565b905060008686868686866040516020016109d496959493929190612e98565b604051602081830303815290604052905060006009826040516020016109fb929190612e24565b60405160208183030381529060405290506000610a4083610a1b846114fb565b604051602001610a2c929190612e53565b6040516020818303038152906040526114fb565b9050600081604051602001610a559190612efb565b6040516020818303038152906040529050610aa46040518060400160405280601581526020017f0a2d2d2d2d2d2d2d2d2d2d2d2d2d2d2d2d2d2d2d2d0000000000000000000000815250610f83565b610aad81610f83565b610aeb6040518060400160405280601581526020017f2d2d2d2d2d2d2d2d2d2d2d2d2d2d2d2d2d2d2d2d0a0000000000000000000000815250610f83565b610af5338c6116b9565b610aff8b826116d7565b610b09600761174b565b610b2c6040518060600160405280602581526020016136cd602591398c33611761565b7ff2bf22d41393841504fa9d3b3e4115b9ebbcb0d40db3ee2d1ebee8dfea260b66338c604051610b5d929190612f84565b60405180910390a15050505050505050505050565b60606000610ba883610b8386611800565b604051602001610b94929190612e00565b6040516020818303038152906040526119ad565b905060088054905081610bbb9190613572565b905060088181548110610bf7577f4e487b7100000000000000000000000000000000000000000000000000000000600052603260045260246000fd5b906000526020600020018054610c0c906134f7565b80601f0160208091040260200160405190810160405280929190818152602001828054610c38906134f7565b8015610c855780601f10610c5a57610100808354040283529160200191610c85565b820191906000526020600020905b815481529060010190602001808311610c6857829003601f168201915b505050505091505092915050565b606060018054610ca2906134f7565b80601f0160208091040260200160405190810160405280929190818152602001828054610cce906134f7565b8015610d1b5780601f10610cf057610100808354040283529160200191610d1b565b820191906000526020600020905b815481529060010190602001808311610cfe57829003601f168201915b5050505050905090565b610d37610d306110f2565b83836119e0565b5050565b610d4c610d466110f2565b836111b3565b610d8b576040517f08c379a0000000000000000000000000000000000000000000000000000000008152600401610d8290613208565b60405180910390fd5b610d9784848484611b4d565b50505050565b6060610da882611086565b610de7576040517f08c379a0000000000000000000000000000000000000000000000000000000008152600401610dde90613168565b60405180910390fd5b6000600660008481526020019081526020016000208054610e07906134f7565b80601f0160208091040260200160405190810160405280929190818152602001828054610e33906134f7565b8015610e805780601f10610e5557610100808354040283529160200191610e80565b820191906000526020600020905b815481529060010190602001808311610e6357829003601f168201915b505050505090506000610e91611ba9565b9050600081511415610ea7578192505050610eea565b600082511115610edc578082604051602001610ec4929190612e00565b60405160208183030381529060405292505050610eea565b610ee584611bc0565b925050505b919050565b6000600560008473ffffffffffffffffffffffffffffffffffffffff1673ffffffffffffffffffffffffffffffffffffffff16815260200190815260200160002060008373ffffffffffffffffffffffffffffffffffffffff1673ffffffffffffffffffffffffffffffffffffffff16815260200190815260200160002060009054906101000a900460ff16905092915050565b61101981604051602401610f979190612fc8565b6040516020818303038152906040527f41304fac000000000000000000000000000000000000000000000000000000007bffffffffffffffffffffffffffffffffffffffffffffffffffffffff19166020820180517bffffffffffffffffffffffffffffffffffffffffffffffffffffffff8381831617835250505050611c67565b50565b60007f01ffc9a7000000000000000000000000000000000000000000000000000000007bffffffffffffffffffffffffffffffffffffffffffffffffffffffff1916827bffffffffffffffffffffffffffffffffffffffffffffffffffffffff1916149050919050565b60008073ffffffffffffffffffffffffffffffffffffffff166002600084815260200190815260200160002060009054906101000a900473ffffffffffffffffffffffffffffffffffffffff1673ffffffffffffffffffffffffffffffffffffffff1614159050919050565b600033905090565b816004600083815260200190815260200160002060006101000a81548173ffffffffffffffffffffffffffffffffffffffff021916908373ffffffffffffffffffffffffffffffffffffffff160217905550808273ffffffffffffffffffffffffffffffffffffffff1661116d836106ad565b73ffffffffffffffffffffffffffffffffffffffff167f8c5be1e5ebec7d5bd14f71427d1e84f3dd0314c0f7b2291e5b200ac8c7c3b92560405160405180910390a45050565b60006111be82611086565b6111fd576040517f08c379a00000000000000000000000000000000000000000000000000000000081526004016111f4906130a8565b60405180910390fd5b6000611208836106ad565b90508073ffffffffffffffffffffffffffffffffffffffff168473ffffffffffffffffffffffffffffffffffffffff16148061127757508373ffffffffffffffffffffffffffffffffffffffff1661125f84610490565b73ffffffffffffffffffffffffffffffffffffffff16145b8061128857506112878185610eef565b5b91505092915050565b8273ffffffffffffffffffffffffffffffffffffffff166112b1826106ad565b73ffffffffffffffffffffffffffffffffffffffff1614611307576040517f08c379a00000000000000000000000000000000000000000000000000000000081526004016112fe906131a8565b60405180910390fd5b600073ffffffffffffffffffffffffffffffffffffffff168273ffffffffffffffffffffffffffffffffffffffff161415611377576040517f08c379a000000000000000000000000000000000000000000000000000000000815260040161136e90613068565b60405180910390fd5b611382838383611c90565b61138d6000826110fa565b6001600360008573ffffffffffffffffffffffffffffffffffffffff1673ffffffffffffffffffffffffffffffffffffffff16815260200190815260200160002060008282546113dd919061340d565b925050819055506001600360008473ffffffffffffffffffffffffffffffffffffffff1673ffffffffffffffffffffffffffffffffffffffff1681526020019081526020016000206000828254611434919061332c565b92505081905550816002600083815260200190815260200160002060006101000a81548173ffffffffffffffffffffffffffffffffffffffff021916908373ffffffffffffffffffffffffffffffffffffffff160217905550808273ffffffffffffffffffffffffffffffffffffffff168473ffffffffffffffffffffffffffffffffffffffff167fddf252ad1be2c89b69c2b068fc378daa952ba7f163c4a11628f55a4df523b3ef60405160405180910390a4505050565b600081600001549050919050565b6060600082519050600081141561152457604051806020016040528060008152509150506116b4565b60006003600283611535919061332c565b61153f9190613382565b600461154b91906133b3565b9050600060208261155c919061332c565b67ffffffffffffffff81111561159b577f4e487b7100000000000000000000000000000000000000000000000000000000600052604160045260246000fd5b6040519080825280601f01601f1916602001820160405280156115cd5781602001600182028036833780820191505090505b50905060006040518060600160405280604081526020016136f2604091399050600181016020830160005b868110156116715760038101905062ffffff818a015116603f8160121c168401518060081b905060ff603f83600c1c1686015116810190508060081b905060ff603f8360061c1686015116810190508060081b905060ff603f831686015116810190508060e01b905080845260048401935050506115f8565b50600386066001811461168b576002811461169b576116a6565b613d3d60f01b60028303526116a6565b603d60f81b60018303525b508484525050819450505050505b919050565b6116d3828260405180602001604052806000815250611c95565b5050565b6116e082611086565b61171f576040517f08c379a000000000000000000000000000000000000000000000000000000000815260040161171690613128565b60405180910390fd5b80600660008481526020019081526020016000209080519060200190611746929190612068565b505050565b6001816000016000828254019250508190555050565b6117fb83838360405160240161177993929190612fea565b6040516020818303038152906040527fe3849f79000000000000000000000000000000000000000000000000000000007bffffffffffffffffffffffffffffffffffffffffffffffffffffffff19166020820180517bffffffffffffffffffffffffffffffffffffffffffffffffffffffff8381831617835250505050611c67565b505050565b60606000821415611848576040518060400160405280600181526020017f300000000000000000000000000000000000000000000000000000000000000081525090506119a8565b600082905060005b6000821461187a57808061186390613529565b915050600a826118739190613382565b9150611850565b60008167ffffffffffffffff8111156118bc577f4e487b7100000000000000000000000000000000000000000000000000000000600052604160045260246000fd5b6040519080825280601f01601f1916602001820160405280156118ee5781602001600182028036833780820191505090505b5090505b600085146119a157600182611907919061340d565b9150600a856119169190613572565b6030611922919061332c565b60f81b81838151811061195e577f4e487b7100000000000000000000000000000000000000000000000000000000600052603260045260246000fd5b60200101907effffffffffffffffffffffffffffffffffffffffffffffffffffffffffffff1916908160001a905350600a8561199a9190613382565b94506118f2565b8093505050505b919050565b6000816040516020016119c09190612de9565b6040516020818303038152906040528051906020012060001c9050919050565b8173ffffffffffffffffffffffffffffffffffffffff168373ffffffffffffffffffffffffffffffffffffffff161415611a4f576040517f08c379a0000000000000000000000000000000000000000000000000000000008152600401611a4690613088565b60405180910390fd5b80600560008573ffffffffffffffffffffffffffffffffffffffff1673ffffffffffffffffffffffffffffffffffffffff16815260200190815260200160002060008473ffffffffffffffffffffffffffffffffffffffff1673ffffffffffffffffffffffffffffffffffffffff16815260200190815260200160002060006101000a81548160ff0219169083151502179055508173ffffffffffffffffffffffffffffffffffffffff168373ffffffffffffffffffffffffffffffffffffffff167f17307eab39ab6107e8899845ad3d59bd9653f200f220920489ca2b5937696c3183604051611b409190612fad565b60405180910390a3505050565b611b58848484611291565b611b6484848484611cf0565b611ba3576040517f08c379a0000000000000000000000000000000000000000000000000000000008152600401611b9a90613028565b60405180910390fd5b50505050565b606060405180602001604052806000815250905090565b6060611bcb82611086565b611c0a576040517f08c379a0000000000000000000000000000000000000000000000000000000008152600401611c01906131c8565b60405180910390fd5b6000611c14611ba9565b90506000815111611c345760405180602001604052806000815250611c5f565b80611c3e84611800565b604051602001611c4f929190612e00565b6040516020818303038152906040525b915050919050565b60008151905060006a636f6e736f6c652e6c6f679050602083016000808483855afa5050505050565b505050565b611c9f8383611e87565b611cac6000848484611cf0565b611ceb576040517f08c379a0000000000000000000000000000000000000000000000000000000008152600401611ce290613028565b60405180910390fd5b505050565b6000611d118473ffffffffffffffffffffffffffffffffffffffff16612055565b15611e7a578373ffffffffffffffffffffffffffffffffffffffff1663150b7a02611d3a6110f2565b8786866040518563ffffffff1660e01b8152600401611d5c9493929190612f38565b602060405180830381600087803b158015611d7657600080fd5b505af1925050508015611da757506040513d601f19601f82011682018060405250810190611da49190612414565b60015b611e2a573d8060008114611dd7576040519150601f19603f3d011682016040523d82523d6000602084013e611ddc565b606091505b50600081511415611e22576040517f08c379a0000000000000000000000000000000000000000000000000000000008152600401611e1990613028565b60405180910390fd5b805181602001fd5b63150b7a0260e01b7bffffffffffffffffffffffffffffffffffffffffffffffffffffffff1916817bffffffffffffffffffffffffffffffffffffffffffffffffffffffff191614915050611e7f565b600190505b949350505050565b600073ffffffffffffffffffffffffffffffffffffffff168273ffffffffffffffffffffffffffffffffffffffff161415611ef7576040517f08c379a0000000000000000000000000000000000000000000000000000000008152600401611eee90613148565b60405180910390fd5b611f0081611086565b15611f40576040517f08c379a0000000000000000000000000000000000000000000000000000000008152600401611f3790613048565b60405180910390fd5b611f4c60008383611c90565b6001600360008473ffffffffffffffffffffffffffffffffffffffff1673ffffffffffffffffffffffffffffffffffffffff1681526020019081526020016000206000828254611f9c919061332c565b92505081905550816002600083815260200190815260200160002060006101000a81548173ffffffffffffffffffffffffffffffffffffffff021916908373ffffffffffffffffffffffffffffffffffffffff160217905550808273ffffffffffffffffffffffffffffffffffffffff16600073ffffffffffffffffffffffffffffffffffffffff167fddf252ad1be2c89b69c2b068fc378daa952ba7f163c4a11628f55a4df523b3ef60405160405180910390a45050565b600080823b905060008111915050919050565b828054612074906134f7565b90600052602060002090601f01602090048101928261209657600085556120dd565b82601f106120af57805160ff19168380011785556120dd565b828001600101855582156120dd579182015b828111156120dc5782518255916020019190600101906120c1565b5b5090506120ea91906120ee565b5090565b5b808211156121075760008160009055506001016120ef565b5090565b600061211e61211984613274565b613243565b90508281526020810184848401111561213657600080fd5b6121418482856134b5565b509392505050565b600061215c612157846132a4565b613243565b90508281526020810184848401111561217457600080fd5b61217f8482856134b5565b509392505050565b60008135905061219681613670565b92915050565b6000813590506121ab81613687565b92915050565b6000813590506121c08161369e565b92915050565b6000815190506121d58161369e565b92915050565b600082601f8301126121ec57600080fd5b81356121fc84826020860161210b565b91505092915050565b600082601f83011261221657600080fd5b8135612226848260208601612149565b91505092915050565b60008135905061223e816136b5565b92915050565b60006020828403121561225657600080fd5b600061226484828501612187565b91505092915050565b6000806040838503121561228057600080fd5b600061228e85828601612187565b925050602061229f85828601612187565b9150509250929050565b6000806000606084860312156122be57600080fd5b60006122cc86828701612187565b93505060206122dd86828701612187565b92505060406122ee8682870161222f565b9150509250925092565b6000806000806080858703121561230e57600080fd5b600061231c87828801612187565b945050602061232d87828801612187565b935050604061233e8782880161222f565b925050606085013567ffffffffffffffff81111561235b57600080fd5b612367878288016121db565b91505092959194509250565b6000806040838503121561238657600080fd5b600061239485828601612187565b92505060206123a58582860161219c565b9150509250929050565b600080604083850312156123c257600080fd5b60006123d085828601612187565b92505060206123e18582860161222f565b9150509250929050565b6000602082840312156123fd57600080fd5b600061240b848285016121b1565b91505092915050565b60006020828403121561242657600080fd5b6000612434848285016121c6565b91505092915050565b60006020828403121561244f57600080fd5b600061245d8482850161222f565b91505092915050565b6000806040838503121561247957600080fd5b60006124878582860161222f565b925050602083013567ffffffffffffffff8111156124a457600080fd5b6124b085828601612205565b9150509250929050565b6124c381613441565b82525050565b6124d281613453565b82525050565b60006124e3826132e9565b6124ed81856132ff565b93506124fd8185602086016134c4565b6125068161365f565b840191505092915050565b600061251c826132f4565b6125268185613310565b93506125368185602086016134c4565b61253f8161365f565b840191505092915050565b6000612555826132f4565b61255f8185613321565b935061256f8185602086016134c4565b80840191505092915050565b60008154612588816134f7565b6125928186613321565b945060018216600081146125ad57600181146125be576125f1565b60ff198316865281860193506125f1565b6125c7856132d4565b60005b838110156125e9578154818901526001820191506020810190506125ca565b838801955050505b50505092915050565b6000612607603283613310565b91507f4552433732313a207472616e7366657220746f206e6f6e20455243373231526560008301527f63656976657220696d706c656d656e74657200000000000000000000000000006020830152604082019050919050565b600061266d601c83613310565b91507f4552433732313a20746f6b656e20616c7265616479206d696e746564000000006000830152602082019050919050565b60006126ad602483613310565b91507f4552433732313a207472616e7366657220746f20746865207a65726f2061646460008301527f72657373000000000000000000000000000000000000000000000000000000006020830152604082019050919050565b6000612713601983613310565b91507f4552433732313a20617070726f766520746f2063616c6c6572000000000000006000830152602082019050919050565b6000612753602c83613310565b91507f4552433732313a206f70657261746f7220717565727920666f72206e6f6e657860008301527f697374656e7420746f6b656e00000000000000000000000000000000000000006020830152604082019050919050565b60006127b9600983613321565b91507f272f3e3c2f7376673e00000000000000000000000000000000000000000000006000830152600982019050919050565b60006127f9603883613310565b91507f4552433732313a20617070726f76652063616c6c6572206973206e6f74206f7760008301527f6e6572206e6f7220617070726f76656420666f7220616c6c00000000000000006020830152604082019050919050565b600061285f602a83613310565b91507f4552433732313a2062616c616e636520717565727920666f7220746865207a6560008301527f726f2061646472657373000000000000000000000000000000000000000000006020830152604082019050919050565b60006128c5602983613310565b91507f4552433732313a206f776e657220717565727920666f72206e6f6e657869737460008301527f656e7420746f6b656e00000000000000000000000000000000000000000000006020830152604082019050919050565b600061292b602e83613310565b91507f45524337323155524953746f726167653a2055524920736574206f66206e6f6e60008301527f6578697374656e7420746f6b656e0000000000000000000000000000000000006020830152604082019050919050565b6000612991606983613321565b91507f222c20226465736372697074696f6e223a20224120636f6c6c656374696f6e2060008301527f6f6620636f6c6f7273206c6976696e6720696e20746865206d6574617665727360208301527f652e222c2022696d616765223a2022646174613a696d6167652f7376672b786d60408301527f6c3b6261736536342c00000000000000000000000000000000000000000000006060830152606982019050919050565b6000612a43600283613321565b91507f227d0000000000000000000000000000000000000000000000000000000000006000830152600282019050919050565b6000612a83602083613310565b91507f4552433732313a206d696e7420746f20746865207a65726f20616464726573736000830152602082019050919050565b6000612ac3603183613310565b91507f45524337323155524953746f726167653a2055524920717565727920666f722060008301527f6e6f6e6578697374656e7420746f6b656e0000000000000000000000000000006020830152604082019050919050565b6000612b29602c83613310565b91507f4552433732313a20617070726f76656420717565727920666f72206e6f6e657860008301527f697374656e7420746f6b656e00000000000000000000000000000000000000006020830152604082019050919050565b6000612b8f602983613310565b91507f4552433732313a207472616e73666572206f6620746f6b656e2074686174206960008301527f73206e6f74206f776e00000000000000000000000000000000000000000000006020830152604082019050919050565b6000612bf5602f83613310565b91507f4552433732314d657461646174613a2055524920717565727920666f72206e6f60008301527f6e6578697374656e7420746f6b656e00000000000000000000000000000000006020830152604082019050919050565b6000612c5b600a83613321565b91507f7b226e616d65223a2022000000000000000000000000000000000000000000006000830152600a82019050919050565b6000612c9b600183613321565b91507f23000000000000000000000000000000000000000000000000000000000000006000830152600182019050919050565b6000612cdb602183613310565b91507f4552433732313a20617070726f76616c20746f2063757272656e74206f776e6560008301527f72000000000000000000000000000000000000000000000000000000000000006020830152604082019050919050565b6000612d41601d83613321565b91507f646174613a6170706c69636174696f6e2f6a736f6e3b6261736536342c0000006000830152601d82019050919050565b6000612d81603183613310565b91507f4552433732313a207472616e736665722063616c6c6572206973206e6f74206f60008301527f776e6572206e6f7220617070726f7665640000000000000000000000000000006020830152604082019050919050565b612de3816134ab565b82525050565b6000612df5828461254a565b915081905092915050565b6000612e0c828561254a565b9150612e18828461254a565b91508190509392505050565b6000612e30828561257b565b9150612e3c828461254a565b9150612e47826127ac565b91508190509392505050565b6000612e5e82612c4e565b9150612e6a828561254a565b9150612e7582612984565b9150612e81828461254a565b9150612e8c82612a36565b91508190509392505050565b6000612ea382612c8e565b9150612eaf828961254a565b9150612ebb828861254a565b9150612ec7828761254a565b9150612ed3828661254a565b9150612edf828561254a565b9150612eeb828461254a565b9150819050979650505050505050565b6000612f0682612d34565b9150612f12828461254a565b915081905092915050565b6000602082019050612f3260008301846124ba565b92915050565b6000608082019050612f4d60008301876124ba565b612f5a60208301866124ba565b612f676040830185612dda565b8181036060830152612f7981846124d8565b905095945050505050565b6000604082019050612f9960008301856124ba565b612fa66020830184612dda565b9392505050565b6000602082019050612fc260008301846124c9565b92915050565b60006020820190508181036000830152612fe28184612511565b905092915050565b600060608201905081810360008301526130048186612511565b90506130136020830185612dda565b61302060408301846124ba565b949350505050565b60006020820190508181036000830152613041816125fa565b9050919050565b6000602082019050818103600083015261306181612660565b9050919050565b60006020820190508181036000830152613081816126a0565b9050919050565b600060208201905081810360008301526130a181612706565b9050919050565b600060208201905081810360008301526130c181612746565b9050919050565b600060208201905081810360008301526130e1816127ec565b9050919050565b6000602082019050818103600083015261310181612852565b9050919050565b60006020820190508181036000830152613121816128b8565b9050919050565b600060208201905081810360008301526131418161291e565b9050919050565b6000602082019050818103600083015261316181612a76565b9050919050565b6000602082019050818103600083015261318181612ab6565b9050919050565b600060208201905081810360008301526131a181612b1c565b9050919050565b600060208201905081810360008301526131c181612b82565b9050919050565b600060208201905081810360008301526131e181612be8565b9050919050565b6000602082019050818103600083015261320181612cce565b9050919050565b6000602082019050818103600083015261322181612d74565b9050919050565b600060208201905061323d6000830184612dda565b92915050565b6000604051905081810181811067ffffffffffffffff8211171561326a57613269613630565b5b8060405250919050565b600067ffffffffffffffff82111561328f5761328e613630565b5b601f19601f8301169050602081019050919050565b600067ffffffffffffffff8211156132bf576132be613630565b5b601f19601f8301169050602081019050919050565b60008190508160005260206000209050919050565b600081519050919050565b600081519050919050565b600082825260208201905092915050565b600082825260208201905092915050565b600081905092915050565b6000613337826134ab565b9150613342836134ab565b9250827fffffffffffffffffffffffffffffffffffffffffffffffffffffffffffffffff03821115613377576133766135a3565b5b828201905092915050565b600061338d826134ab565b9150613398836134ab565b9250826133a8576133a76135d2565b5b828204905092915050565b60006133be826134ab565b91506133c9836134ab565b9250817fffffffffffffffffffffffffffffffffffffffffffffffffffffffffffffffff0483118215151615613402576134016135a3565b5b828202905092915050565b6000613418826134ab565b9150613423836134ab565b925082821015613436576134356135a3565b5b828203905092915050565b600061344c8261348b565b9050919050565b60008115159050919050565b60007fffffffff0000000000000000000000000000000000000000000000000000000082169050919050565b600073ffffffffffffffffffffffffffffffffffffffff82169050919050565b6000819050919050565b82818337600083830152505050565b60005b838110156134e25780820151818401526020810190506134c7565b838111156134f1576000848401525b50505050565b6000600282049050600182168061350f57607f821691505b6020821081141561352357613522613601565b5b50919050565b6000613534826134ab565b91507fffffffffffffffffffffffffffffffffffffffffffffffffffffffffffffffff821415613567576135666135a3565b5b600182019050919050565b600061357d826134ab565b9150613588836134ab565b925082613598576135976135d2565b5b828206905092915050565b7f4e487b7100000000000000000000000000000000000000000000000000000000600052601160045260246000fd5b7f4e487b7100000000000000000000000000000000000000000000000000000000600052601260045260246000fd5b7f4e487b7100000000000000000000000000000000000000000000000000000000600052602260045260246000fd5b7f4e487b7100000000000000000000000000000000000000000000000000000000600052604160045260246000fd5b6000601f19601f8301169050919050565b61367981613441565b811461368457600080fd5b50565b61369081613453565b811461369b57600080fd5b50565b6136a78161345f565b81146136b257600080fd5b50565b6136be816134ab565b81146136c957600080fd5b5056fe416e204e465420772f20494420257320686173206265656e206d696e74656420746f2025734142434445464748494a4b4c4d4e4f505152535455565758595a6162636465666768696a6b6c6d6e6f707172737475767778797a303132333435363738392b2fa2646970667358221220480b3f76be5a5f9943d80da40c0adb903ede8cfa6a6ec8ee98e2eb9e05dcbef964736f6c634300080000333c73766720786d6c6e733d27687474703a2f2f7777772e77332e6f72672f323030302f73766727207072657365727665417370656374526174696f3d27784d696e594d696e206d656574272076696577426f783d273020302033353020333530273e3c726563742077696474683d273130302527206865696768743d2731303025272066696c6c3d27",
  "linkReferences": {},
  "deployedLinkReferences": {}
}